:020000040800F2
:1000000000500020B9200008811D0008831D000851
:10001000851D0008871D0008891D000800000000DC
:100020000000000000000000000000008B1D000820
:100030008D1D0008000000008F1D0008911D0008A4
:100040000121000801210008012100080121000808
:1000500001210008012100080121000801210008F8
:10006000012100080121000801210008991D000854
:10007000012100080121000801210008A91D000834
:10008000B91D000801210008012100080121000814
:1000900001210008012100080121000801210008B8
:1000A00001210008012100080121000801210008A8
:1000B0000121000801210008012100080121000898
:1000C0000121000801210008012100080121000888
:1000D00001210008C91D0008ED1D000801210008CC
:1000E0000121000801210008012100080000000092
:1000F0000000000000000000000000000000000000
:0C01000000000000000000005FF808F1A3
:10011000844641EA000313F0030349D1403A23D354
:100120000B6803604B6843608B688360CB68C36077
:100130000B6903614B6943618B698361CB69C3615F
:100140000B6A03624B6A43628B6A8362CB6AC36247
:100150000B6B03634B6B43638B6B8363CB6BC3632F
:1001600040304031403ADBD230320BD30B68036071
:100170004B6843608B688360CB68C360103010317C
:10018000103AF3D20C3205D351F8043B40F8043B4B
:10019000043AF9D2043208D0D2071CBF11F8013B4F
:1001A00000F8013B01D30B8803806046704700BF15
:1001B000082A13D38B07B1D010F00303AED0C3F1DC
:1001C0000403D21ADB071CBF11F8013B00F8013B06
:1001D000A4D331F8023B20F8023B9FE7043AD9D37D
:1001E000013A11F8013B00F8013BF9D20B7803709A
:1001F0004B7843708B7883706046704781F0004184
:1002000002E000BF83F0004330B54FEA41044FEAFB
:10021000430594EA050F08BF90EA020F1FBF54EA96
:10022000000C55EA020C7FEA645C7FEA655C00F032
:10023000E2804FEA5454D4EB5555B8BF6D420CDD03
:100240002C4480EA020281EA030382EA000083EA86
:10025000010180EA020281EA0303362D88BF30BD26
:1002600011F0004F4FEA01314FF4801C4CEA11317C
:1002700002D0404261EB410113F0004F4FEA0333DB
:100280004CEA133302D0524263EB430394EA050F66
:1002900000F0A780A4F10104D5F1200E0DDB02FAD5
:1002A0000EFC22FA05F2801841F1000103FA0EF269
:1002B000801843FA05F359410EE0A5F120050EF12F
:1002C000200E012A03FA0EFC28BF4CF0020C43FA60
:1002D00005F3C01851EBE37101F0004507D54FF06D
:1002E000000EDCF1000C7EEB00006EEB0101B1F5BD
:1002F000801F1BD3B1F5001F0CD349085FEA300003
:100300004FEA3C0C04F101044FEA445212F5800F0D
:1003100080F09A80BCF1004F08BF5FEA500C50F1AA
:10032000000041EB045141EA050130BD5FEA4C0C8D
:10033000404141EB0101013C28BFB1F5801FE9D2EA
:1003400091F0000F04BF01460020B1FA81F308BF0D
:100350002033A3F10B03B3F120020CDA0C3208DDD9
:1003600002F1140CC2F10C0201FA0CF021FA02F1B4
:100370000CE002F11402D8BFC2F1200C01FA02F124
:1003800020FA0CFCDCBF41EA0C019040E41AA2BF49
:1003900001EB0451294330BD6FEA04041F3C1CDA11
:1003A0000C340EDC04F11404C4F1200220FA04F031
:1003B00001FA02F340EA030021FA04F345EA0301DB
:1003C00030BDC4F10C04C4F1200220FA02F001FA9D
:1003D00004F340EA0300294630BD21FA04F029461F
:1003E00030BD94F0000F83F4801306BF81F48011B8
:1003F0000134013D4EE77FEA645C18BF7FEA655C2B
:1004000029D094EA050F08BF90EA020F05D054EAFC
:10041000000C04BF1946104630BD91EA030F1EBF01
:100420000021002030BD5FEA545C05D14000494105
:1004300028BF41F0004130BD14F580043CBF01F5F8
:10044000801130BD01F0004545F0FE4141F47001DE
:100450004FF0000030BD7FEA645C1ABF19461046B9
:100460007FEA655C1CBF0B46024650EA013406BFBA
:1004700052EA033591EA030F41F4002130BD00BF79
:1004800090F0000F04BF0021704730B54FF4806436
:1004900004F132044FF000054FF0000150E700BFB7
:1004A00090F0000F04BF0021704730B54FF4806416
:1004B00004F1320410F0004548BF40424FF0000103
:1004C0003EE700BF42004FEAE2014FEA31014FEA46
:1004D00002701FBF12F07F4393F07F4F81F0605195
:1004E000704732F07F4208BF704793F07F4F04BFE0
:1004F00041F40021704730B54FF4607401F00045BD
:1005000021F000411CE700BF50EA010208BF70471C
:1005100030B54FF000050AE050EA010208BF70470D
:1005200030B511F0004502D5404261EB41014FF476
:10053000806404F132045FEA915C3FF4D8AE4FF07E
:1005400003025FEADC0C18BF03325FEADC0C18BF61
:10055000033202EBDC02C2F1200300FA03FC20FAB2
:1005600002F001FA03FE40EA0E0021FA02F11444FF
:10057000BDE600BF70B54FF0FF0C4CF4E06C1CEA18
:1005800011541DBF1CEA135594EA0C0F95EA0C0F89
:1005900000F0DEF82C4481EA030621EA4C5123EAFC
:1005A0004C5350EA013518BF52EA033541F480112B
:1005B00043F4801338D0A0FB02CE4FF00005E1FBDE
:1005C00002E506F00042E0FB03E54FF00006E1FB28
:1005D00003569CF0000F18BF4EF0010EA4F1FF046B
:1005E000B6F5007F64F5407404D25FEA4E0E6D41AB
:1005F00046EB060642EAC62141EA55514FEAC520BC
:1006000040EA5E504FEACE2EB4F1FD0C88BFBCF537
:10061000E06F1ED8BEF1004F08BF5FEA500E50F1E8
:10062000000041EB045170BD06F0004646EA0101AE
:1006300040EA020081EA0301B4EB5C04C2BFD4EBE0
:100640000C0541EA045170BD41F480114FF0000ED9
:10065000013C00F3AB8014F1360FDEBF002001F047
:10066000004170BDC4F10004203C35DA0C341BDCC1
:1006700004F11404C4F1200500FA05F320FA04F093
:1006800001FA05F240EA020001F0004221F00041C7
:1006900010EBD37021FA04F642EB06015EEA430E3A
:1006A00008BF20EAD37070BDC4F10C04C4F120056A
:1006B00000FA04F320FA05F001FA04F240EA02001D
:1006C00001F0004110EBD37041F100015EEA430EEE
:1006D00008BF20EAD37070BDC4F1200500FA05F20E
:1006E0004EEA020E20FA04F301FA05F243EA02038D
:1006F00021FA04F001F0004121FA04F220EA02009C
:1007000000EBD3705EEA430E08BF20EAD37070BDE1
:1007100094F0000F0FD101F00046400041EB0101C1
:1007200011F4801F08BF013CF7D041EA060195F0A3
:10073000000F18BF704703F00046520043EB03035D
:1007400013F4801F08BF013DF7D043EA060370474A
:1007500094EA0C0F0CEA135518BF95EA0C0F0CD055
:1007600050EA410618BF52EA4306D1D181EA03019B
:1007700001F000414FF0000070BD50EA410606BF95
:100780001046194652EA430619D094EA0C0F02D1DA
:1007900050EA013613D195EA0C0F05D152EA03361F
:1007A0001CBF104619460AD181EA030101F000413D
:1007B00041F0FE4141F470014FF0000070BD41F086
:1007C000FE4141F4780170BD70B54FF0FF0C4CF460
:1007D000E06C1CEA11541DBF1CEA135594EA0C0F7F
:1007E00095EA0C0F00F0A7F8A4EB050481EA030ECC
:1007F00052EA03354FEA013100F088804FEA0333B3
:100800004FF0805545EA131343EA12634FEA022280
:1008100045EA111545EA10654FEA00260EF0004141
:100820009D4208BF964244F1FD0404F5407402D293
:100830005B084FEA3202B61A65EB03055B084FEA24
:1008400032024FF480104FF4002CB6EB020E75EB21
:10085000030E22BFB61A754640EA0C005B084FEA49
:100860003202B6EB020E75EB030E22BFB61A7546C6
:1008700040EA5C005B084FEA3202B6EB020E75EB11
:10088000030E22BFB61A754640EA9C005B084FEA89
:100890003202B6EB020E75EB030E22BFB61A754696
:1008A00040EADC0055EA060E18D04FEA051545EA85
:1008B00016754FEA06164FEAC30343EA52734FEA2E
:1008C000C2025FEA1C1CC0D111F4801F0BD141EAA7
:1008D00000014FF000004FF0004CB6E711F4801F0C
:1008E00004BF01430020B4F1FD0C88BFBCF5E06FEC
:1008F0003FF6AFAEB5EB030C04BFB6EB020C5FEAFC
:10090000500C50F1000041EB045170BD0EF0004E50
:100910004EEA113114EB5C04C2BFD4EB0C0541EA82
:10092000045170BD41F480114FF0000E013C90E67F
:1009300045EA060E8DE60CEA135594EA0C0F08BF43
:1009400095EA0C0F3FF43BAF94EA0C0F0AD150EA42
:1009500001347FF434AF95EA0C0F7FF425AF1046D5
:1009600019462CE795EA0C0F06D152EA03353FF4FD
:10097000FDAE1046194622E750EA410618BF52EA7A
:1009800043067FF4C5AE50EA41047FF40DAF52EA4E
:1009900043057FF4EBAE12E74FF0FF3C06E000BFEB
:1009A0004FF0010C02E000BF4FF0010C4DF804CDF8
:1009B0004FEA410C7FEA6C5C4FEA430C18BF7FEAB8
:1009C0006C5C1BD001B050EA410C0CBF52EA430CE6
:1009D00091EA030F02BF90EA020F0020704710F166
:1009E000000F91EA030F58BF994208BF90422CBFF5
:1009F000D8176FEAE37040F0010070474FEA410CEE
:100A00007FEA6C5C02D150EA013C07D14FEA430C0B
:100A10007FEA6C5CD6D152EA033CD3D05DF8040B7C
:100A2000704700BF8446104662468C4619466346AE
:100A300000E000BF01B5FFF7B7FF002848BF10F185
:100A4000000F01BD4DF808EDFFF7F4FF0CBF0120CA
:100A500000205DF808FB00BF4DF808EDFFF7EAFF46
:100A600034BF012000205DF808FB00BF4DF808ED01
:100A7000FFF7E0FF94BF012000205DF808FB00BFF6
:100A80004DF808EDFFF7CEFF94BF012000205DF880
:100A900008FB00BF4DF808EDFFF7C4FF34BF01208D
:100AA00000205DF808FB00BF4FEA410C7FEA6C5C58
:100AB00002D150EA013C0AD14FEA430C7FEA6C5C58
:100AC00002D152EA033C02D14FF0000070474FF0D0
:100AD000010070474FEA410212F5001215D211D5FC
:100AE0006FF47873B3EB625212D94FEAC12343F02B
:100AF000004343EA505311F0004F23FA02F018BFAD
:100B0000404270474FF00000704750EA013005D175
:100B100011F0004008BF6FF0004070474FF0000038
:100B2000704700BF0348044B834202D0034B03B11C
:100B300018477047DC060020DC060020000000009B
:100B40000548064B1B1AD90F01EBA301491002D02F
:100B5000034B03B118477047DC060020DC06002079
:100B60000000000010B5064C237843B9FFF7DAFF08
:100B7000044B13B10448AFF300800123237010BD70
:100B8000DC0600200000000078AB000808B5054B2B
:100B90001BB105490548AFF30080BDE80840FFF7E9
:100BA000CFBF00BF00000000E006002078AB0008C7
:100BB00010B5074C00224FF48051204602F00FF987
:100BC00001224FF48061204602F009F910BD00BFF8
:100BD000000C014000B587B08DF80F001023009382
:100BE00001230DF117020DF10F01044802F009FF76
:100BF0009DF8170007B05DF804FB00BF5008002007
:100C000070B504460D460B4E00224FF4806130460D
:100C100002F0E5F82046FFF7DDFF04462846FFF71F
:100C2000D9FF01224FF48061304602F0D8F8204607
:100C300070BD00BF000C014038B504460A4D0022CB
:100C40004FF48061284602F0CAF82046FFF7C2FF41
:100C5000FF20FFF7BFFF044601224FF480612846C2
:100C600002F0BDF8204638BD000C0140F8B504463E
:100C70000D4616460C4F00224FF48061384602F0B4
:100C8000AEF82046FFF7A6FF044610233246294659
:100C9000064802F0D8FF01224FF48061384602F086
:100CA0009EF82046F8BD00BF000C0140500800200F
:100CB000F8B504460D4616460C4F00224FF48061ED
:100CC000384602F08CF82046FFF784FF04461023D4
:100CD00032462946064802F0B8FD01224FF48061F1
:100CE000384602F07CF82046F8BD00BF000C0140F9
:100CF0005008002000B585B0154B93E80300029022
:100D00008DF80C10052202A93020FFF7D1FF052233
:100D100069461020FFF7AAFF0023042B09D803F12E
:100D200010026A4412F8102CA52A02D10133DBB25A
:100D3000F3E7052B06D0074803F01CFE012005B0A1
:100D40005DF804FB044803F015FE0020F7E700BF40
:100D500008AC0008E0AB0008F4AB000810B50022B6
:100D60004FF48051244802F03AF8244C05222146E1
:100D70003020FFF79DFF052221462A20FFF798FF2C
:100D800001212120FFF73CFF01212220FFF738FF3E
:100D90001A212420FFF734FF78212520FFF730FFA8
:100DA0000F212620FFF72CFF0E212020FFF728FF20
:100DB000FF21E120FFF724FFFF21E220FFF720FFC2
:100DC00007213D20FFF71CFF1D20FFF735FF70B105
:100DD00001213C20FFF714FF07213D20FFF710FF02
:100DE00001224FF48051044801F0F9FF10BD732136
:100DF0005020FFF705FFEBE7000C014024AC000892
:100E0000F8B504460D461646354F00224FF4805182
:100E1000384601F0E4FFFF21E120FFF7F1FEFF215A
:100E2000E220FFF7EDFE052221463020FFF740FFCC
:100E3000052221462A20FFF73BFF32462946A02003
:100E4000FFF736FF01224FF48051384601F0C7FF0B
:100E50004FF40061224801F0BBFF0028F8D10720C1
:100E6000FFF7EAFE044601462720FFF7C9FE14F00B
:100E7000400F0AD114F0100F23D114F0200F29D005
:100E8000184803F077FD2020F8BD6020FFF7D4FE5E
:100E9000154B187020280BD9FF21E220FFF7B0FE78
:100EA000C4F34201114B1970114803F003FDE1E74F
:100EB000024610496120FFF7D9FE0F4803F05AFDA2
:100EC000EAE7FF21E120FFF79BFE0C4803F052FD0B
:100ED0001020D9E70A4803F04DFDFF20D4E700BFFA
:100EE000000C0140A4AB0008F9060020F806002021
:100EF00010AC0008FC060020D0AB000890AB000846
:100F0000ACAB0008194B1B68042B05D00178184ABC
:100F1000D1540133154A1360154B1B780A2B07D1A6
:100F2000124B1B685A1E12498A5CFF2A07D0704771
:100F30000F4A0023138093700C4A1360F0E71A1FC6
:100F40008A5C0A2AF3D1D91E094A505C09490880F3
:100F5000023BD15C084B1980002313809370034A35
:100F60001360064B01221A60E1E700BFFC07002076
:100F7000F807002000000020F0070020F407002000
:100F800008B50A46FF230146014803F045F808BDAD
:100F90003409002010B50468E36843F01003E360EF
:100FA00003F084FB10BD0000F0B583B015461E466B
:100FB00003681A6812F0100F01D103B0F0BD0446A7
:100FC0000F46002201921A6801925B680193019B0F
:100FD00003F081F83B685F68FFB2F71BFFB20D4B6F
:100FE0009C420DD00C4B9C420FD03A460021284623
:100FF00003F010FD32462946204603F057FBDCE79C
:1010000039462846FFF77EFFEFE739462846FFF7C7
:10101000B7FFEAE77C09002034090020002380F8AC
:10102000403003681A6812F0080F09D06FF0080208
:101030001A6003681A685A68DA6842F01002DA60C7
:1010400070470000884202D9431A092B0ADD884202
:1010500002D20B1A092B05DD884203D0024B002275
:101060001A8070470846704700000020034B00229A
:101070001A805A809A80DA80704700BF48080020A2
:101080002DE9F04104464FF480413B4801F0A0FEB9
:1010900018B13A4B1B68012B3BD11021384801F0A5
:1010A000A4FE002306E003EB430204EB420200210E
:1010B00051800133032BF6DD002319E003F1010C0D
:1010C000304A32F81300618801446180981C32F87C
:1010D0001CC0218961442181D91C32F810C0E089EB
:1010E0006044E08132F811100433A28A0A44A282DB
:1010F000132BE3DD00220AE002EB420104EB410185
:101100004B882148A0FB03039B084B800132032A34
:10111000F2DDDFF878806188404603F0CBFB1C4F9E
:101120002189384603F0C6FB1A4EE189304603F0A8
:10113000C1FB194DA18A284603F0BCFB61884046DB
:1011400003F0B8FB2189384603F0B4FBE18930464F
:1011500003F0B0FBA18A284603F0ACFB0F4803F074
:1011600009FC064B1B68012B01D0BDE8F081034B45
:1011700000221A60F9E700BF0010014000080020BB
:10118000000C01400C080020CDCCCCCC2CAC0008CD
:1011900040AC000854AC000868AC0008CCAB0008B8
:1011A00000B500221DE002F1010E174931F812C00E
:1011B000164B18886044188002F1020C31F81EE0CA
:1011C000588870445880D01C31F81CE0B3F804C033
:1011D000F444A3F804C031F810000432D988014463
:1011E000D980132ADFDD002209E0084931F81230E6
:1011F0000748A0FB03039B0821F812300132032AA1
:10120000F3DD5DF804FB00BF0C0800204808002057
:10121000CDCCCCCC0023032B39DC10B419E0A2EBED
:101220000C02C2F34E02C2F57A7292B221F8132078
:10123000174C24F81320174A32F813C0144A32F816
:101240001320944502D0144A012414600133032B67
:101250001BDC0F4A32F813C00E4A22F813C00F4AA3
:1012600032F813C003EB430200EB4202528894456C
:10127000D5D9ACEB020CCCF34E0C0CF57A7C21F8F2
:1012800013C0034A22F813C0D5E710BC704770475B
:1012900004080020400800203C08002048080020E6
:1012A00008B54FF400615C4801F092FDA0B14FF425
:1012B0008051594801F08CFDE8B91021574801F0E0
:1012C00094FD574BA6221A80564B11221A704FF4E8
:1012D000FA7000F061FF08BD1021504801F085FD53
:1012E0004F4BA6221A804F4B10221A704FF4FA70FF
:1012F00000F052FFDBE74FF40041474801F068FD82
:1013000070B91021454801F070FD454BA6221A80A6
:10131000444B20221A704FF4FA7000F03DFFDAE7D8
:1013200008213E4801F054FD70B910213B4801F0FE
:101330005CFD3B4BA6221A803A4B21221A704FF4D7
:10134000FA7000F029FFC6E74021344801F040FD63
:1013500070B91021314801F048FD314BA6221A80A6
:10136000304B30221A704FF4FA7000F015FFB2E7DC
:1013700080212A4801F02CFD70B91021274801F086
:1013800034FD274BA6221A80264B31221A704FF4C7
:10139000FA7000F001FF9EE74FF480711F4801F0E2
:1013A00017FD70B910211D4801F01FFD1C4BA6222E
:1013B0001A801C4B40221A704FF4FA7000F0ECFEB9
:1013C00089E74FF40071154801F002FD70B9102152
:1013D000124801F00AFD124BA6221A80114B41223D
:1013E0001A704FF4FA7000F0D7FE74E701210A4832
:1013F00001F0EEFC01287FF46EAF1021074801F0E8
:10140000F4FC074BA6221A80064B50221A704FF4A8
:10141000FA7000F0C1FE5EE700080140000C0140D8
:10142000000000206A07002000B583B0002300936D
:1014300001930A238DF80030FF238DF8073000BB9D
:10144000344B9A88110A8DF802108DF80320DA883F
:10145000110A8DF804108DF805205B882E4AA2FB36
:101460000323DB088DF80630082269462B48FFF776
:10147000C7FC202844D02A4B00221A7003B05DF824
:1014800004FB042809D802B2002AEDD0431E032B26
:10149000EAD8DFE803F00E161E26A62829D0F02889
:1014A000E2D1F0238DF801301E4B1B688DF802301D
:1014B000DAE701238DF801301B4B1B688DF80230F1
:1014C000D2E702238DF80130184B1B688DF80230EB
:1014D000CAE703238DF80130144B1B688DF80230E6
:1014E000C2E704238DF80130114B1B688DF80230E0
:1014F000BAE78DF801000A4B1B788DF80230B3E78C
:101500000C4803F037FA4FF400510B4801F06DFC22
:10151000B1E700BF04080020CDCCCCCC1CAC000847
:101520006A070020E0070020EC070020E807002001
:10153000E40700207CAC00080010014000B585B035
:1015400000230193029303932448254A02604FF439
:10155000807282600122027303754FF46022C261BF
:1015600043600423036101F011F840BB01230193A0
:1015700002930023039301A9184800F05FFE08BB03
:10158000052301930223029301A9144800F056FE9B
:10159000D8B9062301930323029301A90F4800F051
:1015A0004DFEA8B907230193042302930DEB030119
:1015B0000A4800F043FE70B905B05DF804FB00F086
:1015C00023F9D3E700F020F9DAE700F01DF9E0E7AE
:1015D00000F01AF9E6E700F017F9EDE7B007002090
:1015E0000024014010B586B00023029303930493B6
:1015F000059302681E4B9A4201D006B010BD044606
:1016000003F56C439A6942F400729A619A6902F494
:1016100000720092009A9A6942F004029A619B69F2
:1016200003F004030193019BE2230293032303933A
:1016300002A9104801F0BEFA0F48104B03600023C6
:10164000436083608022C2604FF4807202614FF475
:101650008062426120228261C36101F029F918B9D8
:10166000054B23625C62C8E700F0CEF8F8E700BFE4
:1016700000240140000801406C07002008000240DF
:1016800000B583B0124B5A6942F001025A615B699E
:1016900003F001030193019B002211460B2001F08E
:1016A000BFF80B2001F0CCF8002211460F2001F00A
:1016B000B7F80F2001F0C4F800221146102001F005
:1016C000AFF8102001F0BCF803B05DF804FB00BFD8
:1016D000001002402DE9F04188B0002404940594E4
:1016E00006940794444B9A6942F010029A619A69F1
:1016F00002F010020092009A9A6942F020029A6168
:101700009A6902F020020192019A9A6942F0040259
:101710009A619A6902F004020292029A9A6942F06E
:1017200008029A619B6903F008030393039BDFF8A7
:10173000CC8022464FF40051404601F050FB304E21
:1017400001224FF4A051304601F049FB22463021DE
:10175000304601F044FB4FF40053049301250595F6
:1017600006940227079704A9404601F023FA4FF494
:10177000804304930594069504A9404601F01AFAA3
:10178000049505940697A8F5006804A9404601F061
:1017900011FA4FF4A053049305950694032307937D
:1017A00004A9304601F006FA40F648330493059444
:1017B000069504A9304601F0FDF94FF4184304934F
:1017C0000594069504A9404601F0F4F930230493EA
:1017D00005950697079704A9304601F0EBF9802399
:1017E0000493084B0593069504A9304601F0E2F9ED
:1017F00008B0BDE8F08100BF0010024000100140B9
:10180000000C01400000111072B6FEE700B595B063
:10181000282200210DEB020003F0FCF800230593C1
:1018200006930793089309930193029303930493F8
:1018300001220A924FF480330B930E9202221192EE
:1018400012934FF4E01313930AA801F0EDFAC8B90C
:101850000F23059302210691002307934FF4806222
:101860000892099305A801F011FD68B902230193BC
:101870004FF40043039301A801F0E4FD30B915B023
:101880005DF804FBFFF7C0FFFFF7BEFFFFF7BCFFEB
:101890002DE9F04182B000F05BFCFFF7B7FFFFF7E6
:1018A00019FFFFF7EDFEFFF749FE00F011FB00F016
:1018B00029FB00F0E5F9784D284600F0EBFE3222D6
:1018C00076497748FFF766FB764C32227649204608
:1018D000FFF760FB14227549284600F093FD744B16
:1018E00000221A60FFF764F9724B93E8030000903E
:1018F000ADF80410090C8DF806104FF47A73072226
:101900006946204602F088FB042400E01C46FFF7ED
:10191000F1F910B1631E002CF8D1FFF71FFA012274
:101920004FF40051644801F05AFA644C012210212E
:10193000204601F054FA01222021204601F04FFAFE
:101940005F4B00221A605F4B01221A605E48FFF76E
:1019500097FB4FF47A7000F01FFC47E10022202132
:10196000204601F03CFA0023514A1360574AF02107
:101970001180534A1360564A136058E1534B1B8839
:10198000012B13D0514B1B88022B26D04F4B1B88A9
:10199000032B39D04D4B1B88042B4CD04B4B1B8851
:1019A000F02B5FD0464B00221A6040E1494B19886A
:1019B000494D2960494C204602F07CFF29682046A9
:1019C00002F078FF2968204602F074FF444802F0D4
:1019D000D1FF052000F0E0FBD4E73E4B1988414DD4
:1019E0002960414C204602F065FF2968204602F03C
:1019F00061FF2968204602F05DFF394802F0BAFF16
:101A0000052000F0C9FBC1E7324B1988354D29602C
:101A1000364C204602F04EFF2968204602F04AFF6D
:101A20002968204602F046FF2D4802F0A3FF05205A
:101A300000F0B2FBAEE7274B19882D4D29602D4CE5
:101A4000204602F037FF2968204602F033FF29685C
:101A5000204602F02FFF224802F08CFF052000F004
:101A60009BFB9BE71B4B1B88234A1360013B012B0D
:101A700003D9052000F090FB94E7204C204602F0AB
:101A800019FF204602F016FF204602F013FF14480B
:101A900002F070FFEDE700BFB0070020380700201C
:101AA0007C09002034090020040700200C080020D5
:101AB000F807002098AD000800100140000C01401C
:101AC000F40700200008002004000020000000208F
:101AD0003C080020F0070020EC0700208CAC000838
:101AE000CCAB0008E8070020A0AC0008B4AC0008AC
:101AF000E4070020CCAC0008E0070020E0AC0008C0
:101B000004EB44024D4B03EB42034D4D598835F82D
:101B10001400FFF797FA25F814000134032CEFDDC9
:101B200048494648FFF776FB474B1B881BB1474B9C
:101B30001B68012B51D1444B00221A80404CDFF826
:101B400010812188404602F0B5FE424F6188384638
:101B500002F0B0FE404EA188304602F0ABFE3F4D91
:101B6000E188284602F0A6FE2188404602F0A2FE47
:101B70006188384602F09EFEA188304602F09AFE47
:101B8000E188284602F096FE2E4CDFF8D4802188AA
:101B9000404602F08FFE334F6188384602F08AFEDD
:101BA000314EA188304602F085FE304DE18828464E
:101BB00002F080FE2188404602F07CFE61883846B3
:101BC00002F078FEA188304602F074FEE1882846D3
:101BD00002F070FE264802F0CDFE254802F0CAFE53
:101BE000FFF75EFB184B1888FFF71EFC052000F07E
:101BF000D3FA01224FF400511E4801F0F0F81E4CB8
:101C000001221021204601F0EAF80122202120467D
:101C100001F0E5F80D4B00221A60FFF727FA174B89
:101C20001B68002B3FF49AAE012B3FF4A7AE03488C
:101C3000FFF726FAFFF7B4FA00246FE7040000204C
:101C40004808002034080020000000203C08002044
:101C5000F0AC000804AD000818AD00082CAD000879
:101C600040AD000854AD000868AD000880AD000824
:101C7000CCAB000800100140000C0140F40700202C
:101C800008B50E480E4B03604FF482734360002387
:101C90008360C360036143614FF40072826110226C
:101CA000C2610362436283620A23C36201F072FD70
:101CB00000B908BDFFF7A8FDFBE700BF50080020F2
:101CC0000038004010B586B00023029303930493BC
:101CD00005930268174B9A4201D006B010BD03F578
:101CE000EC33DA6942F48042DA61DA6902F4804264
:101CF0000092009A9A6942F008029A619B6903F087
:101D000008030193019B4FF42043029302230393A2
:101D100003230593084C02A9204600F04BFF4FF423
:101D20008043029300230393049302A9204600F00A
:101D300041FFD2E700380040000C014082B00E4B5A
:101D40009A6942F001029A619A6902F001020092D6
:101D5000009ADA6942F08052DA61DB6903F080535D
:101D60000193019B054A536823F0E06343F000733D
:101D7000536002B0704700BF0010024000000140F5
:101D8000FEE7FEE7FEE7FEE7FEE7704770477047B5
:101D900008B500F0EFF908BD08B5024800F068FE8C
:101DA00008BD00BF6C07002008B5024800F060FEC7
:101DB00008BD00BFF008002008B5024800F058FE3A
:101DC00008BD00BFAC08002010B5054C204602F04D
:101DD0007DFA3223034A04492046FFF7E5F810BD97
:101DE0007C09002038070020F008002010B5054CC1
:101DF000204602F06BFA3223034A04492046FFF7DB
:101E0000D3F810BD3409002004070020AC080020DE
:101E10000120704708B502F0A1FE162303604FF0C1
:101E2000FF3008BD08B54FF0FF31FFF7F3FFFEE7C5
:101E300070B50C461646002506E0AFF3008021463B
:101E400001F8010B01350C46B542F6DB304670BD9A
:101E500070B50C461646002504E014F8010B00F09E
:101E60001BF90135B542F8DB304670BD4FF0FF304D
:101E700070474FF400534B600020704701207047BB
:101E80000020704710B503460C4A0D490D48006804
:101E900040B10C4800680344521A934206D8094ADC
:101EA000136010BD0748084C0460F2E702F056FECC
:101EB0000C2303604FF0FF30F3E700BF0050002019
:101EC00000040000A8080020E00C0020704700007B
:101ED00008B50A480A4B03604FF4E133436000231E
:101EE0008360C36003610C2242618361C36102F0BD
:101EF00063F800B908BDFFF787FCFBE77C09002009
:101F00000038014008B50A480A4B03604FF4E1333A
:101F1000436000238360C36003610C2242618361DC
:101F2000C36102F049F800B908BDFFF76DFCFBE79B
:101F3000340900200044004070B588B004460023F6
:101F4000049305930693079303684B4A934204D086
:101F50004A4A93424AD008B070BD494B9A6942F44C
:101F600080429A619A6902F480420092009A9A69CA
:101F700042F004029A619B6903F004030193019B00
:101F80004FF40073049302230593032307933D4EFC
:101F900004A9304600F00EFE4FF480630493002540
:101FA0000595069504A9304600F004FE3648374BE7
:101FB0000360456085608023C3600561456120231F
:101FC00083614FF40053C36100F072FC58B92E4B8B
:101FD000E3635C6200221146252000F021FC2520ED
:101FE00000F02EFCB7E7FFF70FFCF0E7244BDA69AF
:101FF00042F40032DA61DA6902F400320292029AA3
:102000009A6942F004029A619B6903F00403039306
:10201000039B042304930223059303230793194E80
:1020200004A9304600F0C6FD082304930025059559
:10203000069504A9304600F0BDFD1548154B036018
:10204000456085608023C3600561456185614FF40B
:102050008053C36100F02CFC58B90D4BE3635C6204
:1020600000221146262000F0DBFB262000F0E8FBD2
:1020700071E7FFF7C9FBF0E700380140004400407A
:102080000010024000080140F00800205800024003
:10209000AC0800206C00024000B583B001904FF600
:1020A000FF73012201A9034801F0B6FF019803B0B4
:1020B0005DF804FB7C090020FFF708FF0B480C4982
:1020C0000C4A002302E0D458C4500433C4188C4294
:1020D000F9D3094A094C002301E013600432A242FB
:1020E000FBD302F041FDFFF7D3FB70470000002057
:1020F000DC060020F0B10008DC060020DC0C00202B
:10210000FEE7000010B504460E4B1A784FF47A73C0
:10211000B3FBF2F30C4A1068B0FBF3F000F09EFB47
:1021200068B90F2C01D901200AE0002221464FF0A6
:10213000FF3000F075FB054B1C60002000E0012023
:1021400010BD00BF200000201C0000202400002043
:1021500008B5074A136843F010031360032000F02A
:102160004DFB0F20FFF7CEFFFFF7E8FD002008BD75
:1021700000200240034A1168034B1B780B44136094
:10218000704700BFC409002020000020014B1868E0
:10219000704700BFC409002038B50446FFF7F6FFBA
:1021A0000546B4F1FF3F02D0044B1B781C44FFF7F7
:1021B000EDFF401BA042FAD338BD00BF2000002035
:1021C000704708B5436A9A6A12F0500F1ED19A6A96
:1021D00042F400729A621A68926802F46022B2F5C0
:1021E000602F03D01846FFF7EBFF08BD1A7B002ACB
:1021F000F8D19A6A22F480729A629A6A12F4805F25
:10220000F0D19A6A42F001029A62EBE71B6A1B6BFB
:102210009847EAE7704708B5406AFFF7FBFF08BD3B
:10222000704708B5406A836A43F040038362C36A1B
:1022300043F00403C362FFF7F3FF08BD30B482B07C
:102240000022019290F82420012A00F08F8003469A
:10225000012280F824204A68062A2DD80468606B81
:1022600002EB8202053A4FF01F0C0CFA02FC20EA46
:102270000C000D6805FA02F2024362630A68092A3B
:1022800038D91C68E06802EB42021E3A4FF0070C96
:102290000CFA02FC20EA0C008D6805FA02F20243F7
:1022A000E2600A68103A012A34D90020002283F83B
:1022B000242002B030BC70470C2A0DD80568286B6A
:1022C00002EB8202233A1F24944020EA04000C68A7
:1022D000944020432863D1E70568E86A02EB820254
:1022E000413A1F24944020EA04000C6894402043A3
:1022F000E862C3E71C68206902EB42024FF0070C5A
:102300000CFA02FC20EA0C008D6805FA02F2024386
:102310002261C6E71A681648824205D09A6A42F0DE
:1023200020029A620120C1E7906810F4000F1BD1CF
:10233000906840F4000090600A68102A01D00020E4
:10234000B4E70C4A12680C49A1FB0212920C02EB92
:1023500082025200019202E0019A013A0192019A2E
:10236000002AF9D10020A1E700209FE70220A0E782
:10237000002401401C00002083DE1B4330B583B0E5
:102380000023019303689A6812F0010F33D10446C9
:102390009A6842F001029A60184B1B68184AA2FB27
:1023A00003239B0C019302E0019B013B0193019BE2
:1023B000002BF9D1FFF7EAFE054623689B6813F06E
:1023C000010F16D1FFF7E2FE431B022BF5D923685C
:1023D0009B6813F0010FF0D1A36A43F01003A362CE
:1023E000E36A43F00103E362002384F82430012010
:1023F00002E0002000E0002003B030BD1C000020FF
:1024000083DE1B43F8B504460D4616460168444872
:10241000814259D0434B994256D094F82430012B35
:102420007CD0012384F824302046FFF7A7FF07461D
:1024300000286ED1A16A21F4706121F0010141F4FC
:102440008071A1622268374B9A4244D0A36A23F478
:102450008013A362536813F4806F05D0A36A23F43A
:10246000405343F48053A362A36A13F4805F48D0BF
:10247000E36A23F00603E362002384F82430236A2E
:10248000294A9A62236A294ADA62236A284A1A6325
:1024900023686FF002021A602268936843F4807325
:1024A0009360216833462A464C31206A00F036FAA0
:1024B00023689A6802F46022B2F5602F24D09A68EB
:1024C00042F480129A6027E0154B5B6813F4702F7A
:1024D000A3D0012720E0A3F580635B6813F4702F7D
:1024E000B4D0A36A43F48013A3620D4B5B6813F46A
:1024F000806FB9D0A36A23F4405343F48053A3629E
:10250000B2E70023E362B7E79A6842F4A0029A6058
:1025100002E0002384F824303846F8BD0227FBE7A8
:102520000024014000280140C321000817220008B0
:102530002322000838B503689A6812F0010F01D110
:10254000002038BD04469A6822F001029A60FFF725
:102550001DFE054623689B6813F0010F13D0FFF79B
:1025600015FE431B022BF5D923689B6813F0010F5E
:10257000F0D0A36A43F01003A362E36A43F00103BF
:10258000E3620120DDE70020DBE7000000287BD0CC
:1025900070B50446836A002B4DD02046FFF7CAFF72
:1025A000A36A13F0100369D1002867D1A26A22F44C
:1025B000885222F0020242F00202A2626268E169DD
:1025C0000A43217B42EA4102A568B5F5807F02D02B
:1025D000012D36D01D46267D012E35D02668716826
:1025E00021F46941294371602568AE68274931406B
:1025F0001143A960A168B1F5807F01D0012902D102
:102600002369013B1B052568E96A21F470010B432E
:10261000EB62236899681E4B0B409A4225D0A36A4F
:1026200023F0120343F01003A362E36A43F00103B3
:10263000E362012027E0C36280F82430FEF7D2FF76
:10264000ABE74FF48075C6E731B9A169013945EAB6
:10265000413141F40065C1E7A16A41F02001A16266
:10266000E16A41F00101E162B8E70023E362A36A95
:1026700023F0030343F00103A36204E0A36A43F0E1
:102680001003A362012070BD01207047FDF7E1FF38
:10269000FE0E1FFF70B582B00023019390F8243026
:1026A000012B72D00446012380F82430FFF742FF4B
:1026B0002046FFF763FE054628B1002384F8243046
:1026C000284602B070BDA36A23F4885323F00203A6
:1026D00043F00203A3622E4B1E68022000F03EFF6F
:1026E000B6FBF0F67600019602E0019B013B0193F8
:1026F000019B002BF9D12268936843F00803936093
:10270000FFF744FD064623689A6812F0080F14D0BC
:10271000FFF73CFD801B0A28F5D923689B6813F05E
:10272000080FF0D0A36A23F0120343F01003A36252
:10273000002384F824300125C2E79A6842F004029D
:102740009A60FFF723FD064623689B6813F0040F89
:1027500014D0FFF71BFD801B0A28F5D923689B685E
:1027600013F0040FF0D0A36A23F0120343F0100318
:10277000A362002384F824300125A1E7A36A23F093
:10278000030343F00103A36297E7022598E700BF24
:102790001C000020002808DB0901C9B200F16040DC
:1027A00000F5614080F80013704700F00F00090148
:1027B000C9B2014B1954704714ED00E000B500F0A8
:1027C0000700C0F1070CBCF1040F28BF4FF0040C48
:1027D000031D062B0FD9C31E4FF0FF3E0EFA0CF05F
:1027E00021EA000199400EFA03FE22EA0E0241EAB4
:1027F00002005DF804FB0023EEE70000074AD368FF
:1028000023F4E0631B041B0C000200F4E0600343AC
:1028100043F0BF6343F40033D360704700ED00E042
:1028200010B50446054BD868C0F30220FFF7C6FF79
:1028300001462046FFF7AEFF10BD00BF00ED00E0EF
:10284000002807DB00F01F02400901239340024AE1
:1028500042F82030704700BF00E100E00138B0F1DD
:10286000807F0BD24FF0E0235861054AF02182F8B7
:1028700023100020986107221A61704701207047D9
:1028800000ED00E030B40124056CAC40C56B6C6019
:10289000046863604368102B05D00368996003687F
:1028A000DA6030BC704703689A600368D960F8E763
:1028B00060B310B402460168154B0B441548A0FBE9
:1028C00003031B099B001364134BD363022382F899
:1028D0002130086820F47F5020F03000536894685D
:1028E0002343D468234314692343546923439469DD
:1028F0002343D469234303430B60002090630123E7
:1029000082F8213082F8200010BC70470120704707
:10291000F8FFFDBFCDCCCCCC0000024038B504465A
:1029200090F82000012832D0012084F8200094F88B
:102930002100C0B2012804D0002384F820300220F6
:1029400038BD022084F821000020A0632568286893
:1029500020F0010028602046FFF794FFE36A5BB196
:102960002268136843F00E0313602268136843F073
:10297000010313600020E3E72268136823F00403D7
:1029800013602268136843F00A031360EDE7022026
:10299000D6E7034690F82120D2B2022A06D00422BC
:1029A0008263002280F820200120704701680A68B5
:1029B00022F00E020A6001680A6822F001020A6031
:1029C000026CC06B012101FA02F2426083F821100F
:1029D000002083F82000704708B590F82130DBB262
:1029E000022B03D004238363012008BD026813680F
:1029F00023F00E0313600268136823F001031360D1
:102A00000368194A934214D0143293421FD01432EF
:102A100093421ED0143293421ED0143293421ED0E1
:102A20001432934202D04FF0807203E04FF48012D0
:102A300000E001220D4B5A60012380F82130002371
:102A400080F82030436B6BB198470020CDE710220F
:102A5000F0E74FF48072EDE74FF48052EAE74FF46D
:102A60008032E7E70020C0E7080002400000024093
:102A700038B5C36B1A6804682568016C04238B4061
:102A8000134235D015F0040F32D0236813F0200F15
:102A900003D1236823F0040323600368434A93426D
:102AA00014D01432934218D01432934217D01432F7
:102AB000934217D01432934217D01432934202D06B
:102AC0004FF0806203E04FF4800200E00422384BB4
:102AD0005A60C36A03B1984738BD4022F7E74FF404
:102AE0008062F4E74FF48042F1E74FF48022EEE792
:102AF00002238B4013423CD015F0020F39D02368DB
:102B000013F0200F06D1236823F00A03236001236A
:102B100080F821300368254A934214D0143293423E
:102B20001CD0143293421BD0143293421BD0143267
:102B300093421BD01432934202D04FF0007203E054
:102B40004FF4001200E00222194B5A60002380F873
:102B50002030836A002BBFD09847BDE72022F3E7DF
:102B60004FF40072F0E74FF40052EDE74FF40032FB
:102B7000EAE708238B401342AED015F0080FABD024
:102B8000236823F00E032360026CC16B012303FA58
:102B900002F24A60836380F82130002380F82030FD
:102BA000036B002B98D0984796E700BF08000240BF
:102BB0000000024070B582B00024A446A2E07E4D21
:102BC000AB4210D007D97D4DAB420CD005F5803516
:102BD000AB4208D013E0A5F58015AB4203D005F554
:102BE0007025AB4207D18B68002B55D0012B4ED0FE
:102BF0004261082403E0A5F58015AB42F3D0BEF195
:102C0000FF0F4BD806464FEA8C0233680F259540DC
:102C100023EA050304FA02F2134333604B6813F00E
:102C2000805F6DD0664B9A6942F001029A619B69A0
:102C300003F001030193019B4FEA9C02951C614B39
:102C400053F825600CF00305AD000F23AB4026EAD6
:102C500003065D4B984228D003F58063984200F04C
:102C60008D8003F58063984200F08A8003F58063CD
:102C7000984218D0042319E0CC68C0E7CC6804342B
:102C8000BDE7CC680834BAE7CC680C34B7E702611A
:102C90000824B4E70024B2E70424B0E7061DACF131
:102CA00008029200B1E7032300E00023AB40334366
:102CB0000232444D45F822304B6813F4801F61D036
:102CC000424A936843EA0E0393604B6813F4001F73
:102CD0005ED03E4AD36843EA0E03D3604B6813F4D8
:102CE000003F5BD0394A536843EA0E0353604B6898
:102CF00013F4803F58D0354A136843EA0E0313603B
:102D00000CF1010C0B6833FA0CF253D0012202FAD9
:102D10000CF203EA020E32EA0303F1D14B68122BE4
:102D20003FF64DAF122B3FF66AAF01A555F823F0E1
:102D3000E72B0008792C0008832C0008952C00084C
:102D4000FF2B0008FF2B0008FF2B0008FF2B0008BB
:102D5000FF2B0008FF2B0008FF2B0008FF2B0008AB
:102D6000FF2B0008FF2B0008FF2B0008FF2B00089B
:102D7000FF2B00087D2C0008892C0008012395E713
:102D8000022393E7114A936823EA0E0393609CE7BA
:102D90000E4AD36823EA0E03D3609FE70B4A5368B9
:102DA00023EA0E035360A2E7084A136823EA0E03DE
:102DB0001360A5E702B070BD0000221000003110C2
:102DC00000100240000001400008014000040140E2
:102DD0008368194201D001207047002070470AB172
:102DE00001617047090401617047C36801EA030289
:102DF00021EA030141EA02410161704782B0084BB8
:102E00001B68084AA2FB03235B0A00FB03F3019340
:102E100000BF019B5A1E0192002BF9D102B07047EE
:102E20001C000020D34D6210002800F0F18170B525
:102E300082B00446036813F0010F2CD0994B5B68F5
:102E400003F00C03042B1DD0964B5B6803F00C03BE
:102E5000082B12D06368B3F5803F41D0002B55D1C9
:102E600003F1804303F504331A6822F480321A60B8
:102E70001A6822F480221A6037E08A4B5B6813F4E8
:102E8000803FE7D0874B1B6813F4003F03D0636893
:102E9000002B00F0BF81236813F0020F75D0814B27
:102EA0005B6813F00C0F5FD07E4B5B6803F00C0384
:102EB000082B54D02369002B00F08A807A4B012222
:102EC0001A60FFF763F90546764B1B6813F0020F93
:102ED00075D1FFF75BF9401B0228F5D903209EE16D
:102EE000704A136843F480331360636843B3FFF799
:102EF0004DF905466B4B1B6813F4003FCBD1FFF730
:102F000045F9401B6428F5D9032088E1B3F5A02FCB
:102F100009D0644B1A6822F480321A601A6822F4CD
:102F200080221A60E1E703F18043A3F53C331A687D
:102F300042F480221A601A6842F480321A60D4E7A0
:102F4000FFF724F90546574B1B6813F4003FA2D046
:102F5000FFF71CF9401B6428F5D903205FE1514BB2
:102F60005B6813F4803FA5D14E4B1B6813F0020F32
:102F700003D02369012B40F04F814A4A136823F0A4
:102F8000F803616943EAC1031360236813F0080F73
:102F900033D0A369002B5CD0434B0122C3F88024BB
:102FA000FFF7F4F805463F4B5B6A13F0020F21D19F
:102FB000FFF7ECF8401B0228F5D903202FE1394A2E
:102FC000136823F0F803616943EAC1031360DCE787
:102FD000354B00221A60FFF7D9F80546314B1B68C4
:102FE00013F0020FD1D0FFF7D1F8401B0228F5D91A
:102FF000032014E10120FFF701FF236813F0040F01
:1030000000F09680274BDB6913F0805F34D1254BAD
:10301000DA6942F08052DA61DB6903F08053019390
:10302000019B0125214B1B6813F4807F26D0E368A8
:10303000012B3DD0002B53D103F1804303F5043322
:103040001A6A22F001021A621A6A22F004021A6253
:1030500033E0154B0022C3F88024FFF797F80546AC
:10306000104B5B6A13F0020FC7D0FFF78FF8401BBD
:103070000228F5D90320D2E00025D3E70B4A1368D4
:1030800043F480731360FFF781F80646074B1B6813
:1030900013F4807FCBD1FFF779F8801B6428F5D932
:1030A0000320BCE0001002400000424200700040DB
:1030B0005F4A136A43F001031362E36833B3FFF717
:1030C00065F806465A4B1B6A13F0020F2FD1FFF723
:1030D0005DF8801B41F288339842F3D903209EE0CB
:1030E000052B09D0524B1A6A22F001021A621A6AA1
:1030F00022F004021A62E0E74D4B1A6A42F0040221
:103100001A621A6A42F001021A62D6E7FFF73EF825
:103110000646474B1B6A13F0020F08D0FFF736F83C
:10312000801B41F288339842F3D9032077E0E5B958
:10313000E369002B72D03E4A526802F00C02082A62
:1031400056D0022B17D03B4B00221A66FFF71EF811
:103150000446374B1B6813F0007F47D0FFF716F883
:10316000001B0228F5D9032059E0314AD36923F026
:103170008053D361DCE72F4B00221A66FFF706F875
:1031800005462B4B1B6813F0007F06D0FEF7FEFFB1
:10319000401B0228F5D9032041E0236AB3F5803FA4
:1031A0001AD023494B6823F47413226A606A0243DD
:1031B00013434B601F4B01221A66FEF7E7FF0446DC
:1031C0001B4B1B6813F0007F0ED1FEF7DFFF001BC7
:1031D0000228F5D9032022E0154A536823F400336E
:1031E000A1680B435360DCE7002018E0002016E0E4
:1031F000012B16D00E4B5B6803F48031226A91429A
:1032000011D103F47013626A93420ED1002006E0DC
:1032100001207047012002E0012000E0002002B000
:1032200070BD0120FBE70120F9E70120F7E700BFAF
:1032300000100240000042420F4B5B6803F00C029A
:10324000082A01D00D487047C3F383420C49885CBB
:1032500013F4803F0BD0084B5B68C3F34043094A2B
:10326000D35C064A02FB00F0B0FBF3F07047064B5C
:1032700003FB00F0704700BF0010024000127A000C
:10328000BCAD0008B8AD000800093D00002800F002
:10329000A08070B50D460446524B1B6803F007032F
:1032A0008B420BD24F4A136823F007030B43136082
:1032B000136803F007038B4240F08D80236813F0FE
:1032C000020F17D013F0040F04D0474A536843F499
:1032D000E0635360236813F0080F04D0424A536838
:1032E00043F460535360404A536823F0F003A168ED
:1032F0000B435360236813F0010F31D06368012B37
:1033000020D0022B25D0384A126812F0020F64D068
:1033100035494A6822F0030213434B60FEF736FF3B
:103320000646314B5B6803F00C036268B3EB820F17
:1033300016D0FEF72BFF801B41F288339842F0D95C
:10334000032045E0284A126812F4003FE0D1012032
:103350003EE0254A126812F0007FD9D1012037E003
:10336000204B1B6803F00703AB420AD91D4A1368C0
:1033700023F007032B431360136803F00703AB42EA
:103380002DD1236813F0040F06D0174A536823F495
:10339000E063E1680B435360236813F0080F07D024
:1033A000114A536823F46053216943EAC10353600F
:1033B000FFF742FF0C4B5B68C3F303130B4AD35C6C
:1033C000D8400B4B18600B4B1868FEF79BFE002093
:1033D00070BD012070470120FAE70120F8E70120C5
:1033E000F6E700BF0020024000100240A8AD000830
:1033F0001C00002024000020014B1868704700BF0B
:103400001C00002008B5FFF7F7FF044B5B68C3F30F
:103410000223034AD35CD84008BD00BF001002401D
:10342000A0AD000808B5FFF7E7FF044B5B68C3F3E6
:10343000C223034AD35CD84008BD00BF001002403D
:10344000A0AD000870B582B00446036813F0010F08
:1034500036D03F4BDB6913F0805F49D13C4BDA69D2
:1034600042F08052DA61DB6903F080530193019BE3
:103470000125384B1B6813F4807F3BD0344B1B6A0B
:1034800013F4407313D0626802F440729A420ED073
:103490002F4A136A23F440702F490126C1F8406473
:1034A0000026C1F84064106213F0010F36D1284A9B
:1034B000136A23F4407361680B431362002D3ED1FD
:1034C000236813F0020F06D0214A536823F44043C7
:1034D000A1680B435360236813F0100F34D01C4ACB
:1034E000536823F48003E1680B43536000202CE011
:1034F0000025BEE7174A136843F480731360FEF794
:1035000045FE0646134B1B6813F4807FB6D1FEF7C9
:103510003DFE801B6428F5D9032016E0FEF736FE39
:1035200006460B4B1B6A13F0020FC0D1FEF72EFEAE
:10353000801B41F288339842F3D9032005E0D36918
:1035400023F08053D361BBE7002002B070BD00BF01
:1035500000100240007000400000424208B50228FE
:103560004ED0102803D0012828D0002008BD2B4BB6
:103570005A68186810F08070F8D0C2F38343284965
:10358000C85C12F4803F15D0244B5B68C3F3404302
:10359000244AD25C244BB3FBF2F303FB00F01F4B35
:1035A0005B6813F4800FE1D14000204BA3FB003097
:1035B0004008DBE71E4B03FB00F0F0E7174B1B6AEC
:1035C00040F202321A40B2F5817F24D003F44073F6
:1035D000B3F5007F04D0B3F5407F09D00020C5E7E4
:1035E0000E4A526A12F0020FF5D049F64040BDE78C
:1035F0000A4B186810F40030B8D04FF22440B5E7F9
:10360000FFF710FF054B5B68C3F3813301335B00A9
:10361000B0FBF3F0AAE74FF40040A7E70010024028
:10362000D0AD0008CCAD000800127A00ABAAAAAA5F
:1036300000093D002DE9F04782B00546884617464F
:103640001E46FEF7A3FD0A9B1B1A03EB0609FEF7B5
:103650009DFD8246284B1B68C3F3CB3309FB03F364
:1036600001932B689C6838EA04040CBF01230023F3
:10367000BB423DD0B6F1FF3FF3D0FEF787FDA0EB94
:103680000A00484507D2019A02B14A46019B013B14
:1036900001939146E5E72A68536823F0E0035360FD
:1036A0006B68B3F5827F0BD0AB6AB3F5005F14D0C3
:1036B000012385F85130002385F85030032018E0AD
:1036C000AB68B3F5004F02D0B3F5806FECD12A6838
:1036D000136823F040031360E6E72A68136823F4B5
:1036E000005313602A68136843F400531360DFE744
:1036F000002002B0BDE8F0871C00002010B582B0A9
:1037000004460B46009200228021FFF793FF08B980
:1037100002B010BD636D43F0200363650320F7E73B
:1037200010B582B004460B464168B1F5827F10D0D7
:103730006168B1F5827F03D1A168B1F5806F15D0C2
:103740000092002280212046FFF774FFE0B902B00A
:1037500010BD8168B1F5004F02D0B1F5806FE7D19F
:103760002068016821F040010160E1E70092002239
:1037700001212046FFF75EFF0028E8D0636D43F08B
:10378000200363650320E2E7636D43F02003636574
:103790000320DCE7002856D010B50446436A33B94D
:1037A0004368B3F5827F05D00023C36102E00023A4
:1037B000036143610023A36294F85130002B3CD095
:1037C000022384F851302268136823F04003136009
:1037D000636803F48273A26802F404421343E2684C
:1037E00002F400621343226902F002021343626989
:1037F00002F001021343A26902F400721343E2696A
:1038000002F038021343226A02F080021343A26AD4
:1038100002F40052216813430B60638B226803F0AB
:10382000040353602268D36923F40063D36100204A
:103830006065012384F8513010BD84F85030204673
:10384000FEF740FABCE7012070472DE9F04383B052
:103850001D4690F85030012B00F0D1800446884678
:103860009146012380F85030FEF790FC074694F80B
:103870005160F6B2012E40F0BA80B8F1000F00F0AE
:10388000B780B9F1000F00F0B380032384F8513002
:1038900000236365C4F83080A4F83490A4F836900F
:1038A000A363A387E38763642364A368B3F5004F2E
:1038B0001ED023681A6812F0400F03D11A6842F034
:1038C00040021A60E368B3F5006F1CD0636813B15F
:1038D000B9F1010F55D1226B236812781A73236B4B
:1038E00001332363E38E9BB2013B9BB2E38648E046
:1038F0002268136823F0400313602268136843F4BE
:1039000080431360D5E7636813B1B9F1010F15D196
:10391000226B23681288DA60236B02332363E38E01
:103920009BB2013B9BB2E38608E0FEF72FFCC01B75
:10393000A84202D3B5F1FF3F15D1A5B1E38E9BB2EA
:10394000002B3CD023689A6812F0020FEDD0226B56
:103950001288DA60236B02332363E38E9BB2013B50
:103960009BB2E386EAE7012384F8513003263FE067
:10397000FEF70CFCC01BA84202D3B5F1FF3F19D1E2
:10398000C5B1E38E9BB2D3B123689A6812F0020FDF
:10399000EED0226B12781A73236B01332363B4F8D1
:1039A00036C01FFA8CFC0CF1FF3C1FFA8CFCA4F80B
:1039B00036C0E6E7012384F85130032618E03A4682
:1039C00029462046FFF79AFE08B120236365A368C5
:1039D00033B901932368DA6801929B680193019BD4
:1039E000636D2BB9012384F85130002600E00226D4
:1039F000002384F85030304603B0BDE8F08302263F
:103A0000F9E72DE9F04383B01F460A9D90F8503046
:103A1000012B00F01681044688469146012380F868
:103A20005030FEF7B3FB064694F85130DBB26268C3
:103A3000012B0AD0B2F5827F40F0F080A268002A04
:103A400040F0F380042B40F0F280B8F1000F00F05A
:103A5000F080B9F1000F00F0EE80002F00F0ED8053
:103A600094F85130DBB2042B02D0052384F8513096
:103A700000236365C4F83890E787A787C4F83080CF
:103A8000E786A7862364636423681A6812F0400FF0
:103A900003D11A6842F040021A60E368B3F5006F80
:103AA00011D063680BB1012F0BD1226B2368127800
:103AB0001A73236B01332363E38E9BB2013B9BB2EA
:103AC000E38601276EE063680BB1012F0BD1226BF7
:103AD00023681288DA60236B02332363E38E9BB280
:103AE000013B9BB2E38601271BE023689A6812F032
:103AF000010F0ED0E28F92B25AB1DA68A36B1A802E
:103B0000A36B0233A363E38F9BB2013B9BB2E387BA
:103B10000127FEF73BFB801BA84202D3B5F1FF3F14
:103B20001ED1E38E9BB21BB9E38F9BB2002B5CD0FE
:103B300023689A6812F0020FD7D0E28E92B2002A60
:103B4000D3D0002FD1D0226B1288DA60236B0233DE
:103B50002363E38E9BB2013B9BB2E3860027C4E75D
:103B6000012384F85130032059E023689A6812F049
:103B7000010F0ED0E28F92B25AB1DA68A36B1A70BD
:103B8000A36B0133A363E38F9BB2013B9BB2E3873B
:103B90000127FEF7FBFA831BAB4202D3B5F1FF3FCF
:103BA0001ED1EDB1E38E9BB213B9E38F9BB2E3B1AB
:103BB00023689A6812F0020FD7D0E28E92B2002AE0
:103BC000D3D0002FD1D0226B12781A73236B01331C
:103BD0002363E38E9BB2013B9BB2E3860027C4E7DD
:103BE000012384F85130032019E03246294620464B
:103BF000FFF784FD70B9A36833B901932368DA68CD
:103C000001929B680193019B636DC3B9012384F802
:103C1000513004E020236365012000E002200023EE
:103C200084F8503003B0BDE8F0830220F7E70220AB
:103C3000F5E70120F3E70120F1E70120EFE701209C
:103C4000EDE70220EEE72DE9F04383B0044690F85B
:103C50005160F6B2012E40F0AB80884691461D4679
:103C60004368B3F5827F32D094F85030012B00F0D6
:103C7000A780012384F85030FEF788FA0746B8F190
:103C8000000F00F09680B9F1000F00F0928004233D
:103C900084F8513000236365C4F83880A4F83C9060
:103CA000A4F83E902363A386E38623646364A36839
:103CB000B3F5004F18D023681A6812F0400F03D1F3
:103CC0001A6842F040021A60E3680BB343E083686D
:103CD000002BC9D1042380F85130009513460A46C1
:103CE000FFF78FFE064667E02268136823F0400363
:103CF00013602268136823F480431360DBE7FEF748
:103D000045FAC01BA84202D3B5F1FF3F15D1A5B1BA
:103D1000E38F9BB2002B3CD023689A6812F0010F0E
:103D2000EDD0A26B1B7B1370A36B0133A363E38FF6
:103D30009BB2013B9BB2E387EAE7012384F8513051
:103D4000032636E0FEF722FAC01BA84202D3B5F1E3
:103D5000FF3F19D1C5B1E38F9BB2D3B123689A68F5
:103D600012F0010FEED0DA68A36B1A80A36B023356
:103D7000A363B4F83EC01FFA8CFC0CF1FF3C1FFAA1
:103D80008CFCA4F83EC0E6E7012384F851300326FA
:103D90000FE03A4629462046FFF7C2FC08B120232F
:103DA0006365636D2BB9012384F85130002600E070
:103DB0000226002384F85030304603B0BDE8F0837B
:103DC0000226F9E7026802F10C0353E8003F23F0F2
:103DD000C0030C3242E800310029F3D1202380F8DF
:103DE00041307047026802F10C0353E8003F23F4AE
:103DF00090730C3242E800310029F3D1026802F1DD
:103E0000140353E8003F23F00103143242E8003169
:103E10000029F3D1036B012B05D0202380F8423019
:103E2000002303637047026802F10C0353E8003F6C
:103E300023F010030C3242E800310029F3D1ECE703
:103E400090F84130DBB2212B01D00220704783680B
:103E5000B3F5805F17D0036A5A1C02621A780368B0
:103E60005A60C38C9BB2013B9BB2C3844BB90268BE
:103E7000D36823F08003D3600268D36843F0400323
:103E8000D360002070470369002BE4D1036A1B88CC
:103E90000268C3F308035360036A02330362E0E776
:103EA00010B504460268136923F44053C1680B43FC
:103EB000136183680269134342691A430168CB683E
:103EC00023F4B05323F00C031343CB60026853690F
:103ED00023F4407381690B4353610268134B9A4288
:103EE00020D0FFF78FFA024602EB820202EB820239
:103EF00063689B00B2FBF3F20D48A0FB0231490955
:103F0000642303FB11231B013233A0FB03035B0972
:103F100003F0F00202EB011203F00F0321681344D7
:103F20008B6010BDFFF77EFA0246DDE700380140E6
:103F30001F85EB512DE9F84305460F461646994675
:103F4000DDF820802B681C6837EA04040CBF0124CC
:103F50000024B4422DD1B8F1FF3FF3D0B8F1000FE7
:103F600005D0FEF713F9A0EB09004045EAD92A680D
:103F700002F10C0353E8003F23F4D0730C3242E803
:103F800000310029F3D12A6802F1140353E8003FFD
:103F900023F00103143242E800310029F3D1202339
:103FA00085F8413085F84230002385F84030032001
:103FB00000E00020BDE8F88360B310B5044690F837
:103FC000413013B3242384F841302268D36823F4AA
:103FD0000053D3602046FFF763FF2268136923F480
:103FE000904313612268536923F02A0353612268C6
:103FF000D36843F40053D36000206064202384F826
:10400000413084F84230606310BD80F84030FDF7E5
:1040100093FFD7E7012070472DE9F04182B01E469B
:1040200090F84130DBB2202B4BD104460D46904630
:1040300000294AD00AB9012044E000234364212327
:1040400080F84130FEF7A2F80746A4F82480A4F8CF
:104050002680A368B3F5805F02D04FF000080FE020
:104060002369FBB14FF000080AE038F8023B2268F0
:10407000C3F308035360E28C92B2013A92B2E28435
:10408000E38C9BB28BB100963B46002280212046F8
:10409000FFF750FFD8B9002DE7D015F8012B2368A2
:1040A0005A60E8E7A8460025EAE700963B4600226A
:1040B00040212046FFF73EFF58B9202384F84130C5
:1040C00000E0022002B0BDE8F0810120FAE7032001
:1040D000F8E70320F6E710B5044603685A6990F83C
:1040E0004130DBB2212B0AD023685A6902F040022A
:1040F00094F84230DBB2222B19D0002010BD02F020
:104100008002002AF0D0226802F1140353E8003F35
:1041100023F08003143242E800310029F3D1A06B70
:1041200008B1FEF736FC2046FFF74CFEDCE7002A1C
:10413000E3D0226802F1140353E8003F23F0400368
:10414000143242E800310029F3D1E06B08B1FEF7E8
:1041500020FC2046FFF746FECFE7704708B5016810
:10416000CA6822F04002CA60202280F84120FFF78E
:10417000F4FF002008BD7047704710B5446A2368FB
:104180005A6994F84130DBB2212B10D023685A6968
:1041900002F0400294F84230DBB2222B11D0636C63
:1041A00043F0100363642046FCF738FF10BD02F0B3
:1041B0008002002AEAD00023E3842046FFF702FEB3
:1041C000E4E7002AEBD00023E3852046FFF70AFE50
:1041D000E5E708B5406A0023C385C384FCF71EFFEA
:1041E00008BD704790F84230DBB2222B69D183685A
:1041F000B3F5805F4FD0826AB3F5805F04D0002BA7
:1042000056D10369002B53D103685B681370836A2E
:1042100001338362C38D9BB2013B9BB2C385002BEC
:1042200051D100B583B00268D36823F02003D36076
:104230000268D36823F48073D3600268536923F063
:1042400001035361202380F8423000234363036B52
:10425000012B33D100230363026802F10C0353E8FE
:10426000003F23F010030C3242E800310029F3D163
:1042700003681A6812F0100F06D0002201921A6823
:1042800001925B680193019B818DFFF7AAFF0020DB
:1042900003B05DF804FB0269002AACD1826A0368AE
:1042A0005B68C3F308031380836A02338362B1E758
:1042B00003685B6803F07F031370A8E7FFF75BFFF9
:1042C000E5E70220704700207047000010B582B07B
:1042D000044602681368D068516913F00F0F09D1C2
:1042E00013F0200F0CD010F0200F09D02046FFF75C
:1042F00079FF16E011F0010115D110F4907F12D171
:10430000216B012979D013F0800F03D010F0800FBA
:1043100040F0138113F0400F03D010F0400F40F035
:10432000108102B010BD13F0010F06D010F4807F91
:1043300003D0626C42F00102626413F0040F04D0F7
:1043400019B1626C42F00202626413F0020F04D0F1
:1043500019B1626C42F00402626413F0080F07D0D6
:1043600010F0200F00D119B1626C42F008026264B3
:10437000626C002AD5D013F0200F02D010F0200F6D
:1043800029D123685B6903F04003626C12F0080FC7
:1043900000D163B32046FFF725FD23685B6913F066
:1043A000400F20D0226802F1140353E8003F23F0AD
:1043B0004003143242E800310029F3D1E36B73B1BA
:1043C000624A5A63E06BFEF707FB0028A9D0E06B56
:1043D000436B9847A5E72046FFF704FFD1E7204647
:1043E000FCF71CFE9DE72046FCF718FE99E72046E7
:1043F000FCF714FE0023636493E713F0100F82D0E0
:1044000010F0100F3FF47FAF002301931368019366
:1044100053680193019B536913F0400F51D0E26B35
:1044200013685B689BB2002B3FF47BAFA18D994270
:104430007FF677AFE3859369202B37D0226802F1AE
:104440000C0353E8003F23F480730C3242E8003140
:104450000029F3D1226802F1140353E8003F23F04E
:104460000103143242E800310029F3D1226802F13D
:10447000140353E8003F23F04003143242E80031B4
:104480000029F3D1202384F84230002323632268DB
:1044900002F10C0353E8003F23F010030C3242E812
:1044A00000310029F3D1E06BFEF773FA0223636356
:1044B000A18DE38D9BB2C91A89B22046FFF791FE08
:1044C0002FE7A18DE38D9BB2C91A89B2E38D9BB210
:1044D000002B3FF426AF00293FF423AF226802F1FE
:1044E0000C0353E8003F23F490730C3242E8003091
:1044F0000028F3D1226802F1140353E8003F23F0AF
:104500000103143242E800300028F3D1202384F85C
:10451000423000232363226802F10C0353E8003F7A
:1045200023F010030C3242E800300028F3D10223BC
:1045300063632046FFF755FEF3E62046FFF780FC55
:10454000EFE62046FFF70AFEEBE600BFD341000886
:1045500008B5406A01234363036B012B02D0FFF7C8
:104560000BFE08BD818D4908FFF73BFEF9E708B552
:104570000346406A1B681B6813F0200F2BD10023F1
:10458000C385026802F10C0353E8003F23F48073F3
:104590000C3242E800310029F3D1026802F1140321
:1045A00053E8003F23F00103143242E800310029B0
:1045B000F3D1026802F1140353E8003F23F04003F3
:1045C000143242E800310029F3D1202380F8423030
:1045D000036B012B07D000234363036B012B0FD028
:1045E000FFF7C9FD08BD026802F10C0353E8003F64
:1045F00023F010030C3242E800310029F3D1EAE73E
:10460000818DFFF7EEFDEDE730B583B0044613462C
:104610008162828500254564222280F84220C26B97
:104620001F489062E26B1F48D062E26B1E48106325
:10463000E26B556320680A46011DE06BFEF76EF9D8
:10464000019523681A6801925B680193019B2369B5
:104650005BB1226802F10C0353E8003F43F480731E
:104660000C3242E800310029F3D1226802F1140330
:1046700053E8003F43F00103143242E800310029BF
:10468000F3D1226802F1140353E8003F43F04003E2
:10469000143242E800310029F3D1002003B030BDCC
:1046A0006F450008514500087B41000808B590F8A7
:1046B0004230DBB2202B08D149B10AB9012008BD34
:1046C00000230363FFF7A0FFF9E70220F7E70120CB
:1046D000F5E70000024A0349034800F0C9B800BFEB
:1046E0002800002015820008380000200C4B41688B
:1046F00010B59942044601D003F08CFDA168094B26
:10470000994202D0204603F085FDE168064B9942AC
:1047100004D02046BDE8104003F07CBD10BD00BFB2
:10472000C8090020300A0020980A00202DE9F8432B
:1047300000250423304C314A3149DFF8C890DFF8B6
:10474000C880324F324E116004F15C0029460822C5
:10475000C4E90335C4E90055C4E90555A56065669B
:1047600000F058F904F15800C4E90749C4E9098781
:10477000E66200F021FA274B2946082204F1C40022
:104780006367C4E91A55C4E91E552567C4F8CC50BF
:10479000C4F8805000F03EF904F1680304F1C00051
:1047A000C4F88430C4E92298C4E9247600F004FAFD
:1047B000194B294604F596700822C4F8DC30C4E988
:1047C0003455C4E93855C4F8D850C4F83451C4F845
:1047D000E85000F01FF904F1D003C4E93D87C4F8A4
:1047E000F09004F59470C4F8FC60C4F8EC30BDE8B7
:1047F000F84300F0E1B900BFC8090020000B002019
:10480000D546000885490008A9490008E94900087B
:104810000D4A0008090001001200020010B504460C
:104820000A4800F0CDF9636B23B9094B094A1B68AC
:10483000626323B1BDE81040044800F0C3B9FFF73C
:1048400075FFBDE81040014800F0BCB9100B002016
:10485000000B0020ED460008014800F0B1B900BF90
:10486000100B0020014800F0ADB900BF100B002074
:104870002DE9F8434FF0000980460F461646D6E969
:104880000154013D10D4A389013D012B08D9B4F98D
:104890000E30013304D021464046B84749EA0009AA
:1048A0006B1C04F16804EED13668002EE7D148464F
:1048B000BDE8F8830FB400B5074A83B004AB1068B5
:1048C00053F8042B8168019300F0DAFD03B05DF822
:1048D00004EB04B0704700BF3400002030B505463B
:1048E00089B008460C4600F06FF901210223204AE6
:1048F000049406926A6B04AC0590084401940791F5
:10490000AC6802930390002A2ED0626EB4F90C308A
:10491000D20701D4980521D5990406D4626E43F4D8
:10492000005322F40052A3816266284601AA214660
:1049300003F08EFD636E00280CBF0A254FF0FF3593
:10494000DA0702D4A3899B0502D5284609B030BDF9
:10495000A06D00F037F9284609B030BDA06D00F019
:104960002FF9B4F90C30D7E72846FFF757FFCCE70B
:10497000E0AD0008024B01461868FFF7AFBF00BF6B
:104980003400002010B50C46B1F90E1000F0BAF852
:10499000002803DB236D0344236510BDA38923F4A2
:1049A0008053A38110BD00BF2DE9F0410C46B1F941
:1049B0000C101F46CB05054616460BD421F480513A
:1049C000A1813B4632462846B4F90E10BDE8F041BD
:1049D00000F0AEB8B4F90E100223002200F07CF80B
:1049E000B4F90C10EAE700BF10B50C46B1F90E108F
:1049F00000F072F8B4F90C30421C0EBF23F480535F
:104A000043F480532065A38110BD00BFB1F90E109F
:104A100000F050B870B5860747D0541E002A3ED02B
:104A20000346CAB201E0013C39D303F8012B9D07CC
:104A3000F9D1032C2CD9CDB205EB05250F2C1A4644
:104A400005EB054534D9A4F1100C2CF00F0603F149
:104A5000100EB6444FEA1C1C156055609560D56079
:104A600010327245F8D10CF1010214F00C0F03EB77
:104A7000021204F00F0C13D0ACF1040323F0030373
:104A80000433134442F8045B9A42FBD10CF0030454
:104A90002CB1C9B21C4403F8011B9C42FBD170BD70
:104AA00064461346002CF4D1F9E703461446C0E7E8
:104AB000A446E1E7002238B5064D044608462A60C0
:104AC000FDF7D4F9431C00D038BD2B68002BFBD078
:104AD000236038BD040B002038B50C461146002277
:104AE0008446074D20462A601A466446FDF7C8F9F9
:104AF000431C00D038BD2B68002BFBD0236038BD91
:104B0000040B002038B50C46114600228446074DA0
:104B100020462A601A466446FDF78AF9431C00D0F5
:104B200038BD2B68002BFBD0236038BD040B002060
:104B300038B50C46114600228446074D20462A60AF
:104B40001A466446FDF784F9431C00D038BD2B6833
:104B5000002BFBD0236038BD040B0020014B1868EC
:104B6000704700BF3400002070B50F4B0F4DAB42B3
:104B7000A3EB050607D00024B61055F8043B01341A
:104B80009847A642F9D805F0F7FF094D094B5E1B7F
:104B9000AB424FEAA60606D0002455F8043B013488
:104BA0009847A642F9D870BDE4B10008E4B1000806
:104BB000E4B10008ECB10008704700BF704700BFC7
:104BC000704700BF704700BF20F0030110F00300E2
:104BD000C0F1000051F8043B00F1040C4FEACC0C8A
:104BE0006FF000021CBF22FA0CF213434FF0010CCD
:104BF0004CEA0C2C4CEA0C4CA3EB0C0222EA03020C
:104C000012EACC1204BF51F8043B0430F4D0C2F1D4
:104C1000000102EA0102B2FA82F2C2F11F0200EBC5
:104C2000D2007047024B13B1024800F005B870473C
:104C300000000000798A0008002301461A46184641
:104C400003F0C0BF2DE9F84306460820894603F06B
:104C500027FF0546DFF89880304600F005FCD8F8BD
:104C600008305F6827F00307A7F11104A4EB0904DB
:104C70002C44B4FBF5F4013C05FB04F4A54208DC2C
:104C80000021304603F0E6FED8F808303B44984255
:104C900005D0304600F0EEFB0020BDE8F88330463A
:104CA000614203F0D7FE01300FD0124AD8F8083025
:104CB0003F1B47F001075F60136830461B1B136002
:104CC00000F0D8FB0120BDE8F8830021304603F056
:104CD000C1FED8F80820831A0F2BDADD43F0010358
:104CE0005360054B03491B68C01A0860D1E700BF39
:104CF00068010020180B00205C01002000297CD0F6
:104D0000F8B50C46064600F0AFFB54F8043C774F6C
:104D1000A4F1080523F001016818D7F808C042681B
:104D2000844522F0030200F08380DB07426000EB41
:104D3000020C33D454F8084CDCF804302D1B214409
:104D4000AC6807F1080C644503F0010364D0D5F8A2
:104D50000CE0C4F80CE0CEF80840002B00F0818095
:104D600041F001036B600160B1F5007F22D20122A6
:104D7000CB0849098A40796801330A437A6057F8B9
:104D8000331007EBC302083AC5E9021247F8335063
:104D9000CD603046BDE8F84000F06CBBDCF8043074
:104DA000DB072BD541F00103B1F5007F44F8043C4B
:104DB0000160DCD3B1F5206F4FEA512353D28B0948
:104DC00003F1390003F13802C300F818FB58083822
:104DD000984203D163E09B68984204D05A6822F05D
:104DE00003028A42F7D8D868C5E9023085603046A8
:104DF000DD60BDE8F84000F03DBB7047114407F1AD
:104E0000080C836863453FD0C268DA60936041F064
:104E100001036B606950A7E7002B61D10A44D0E918
:104E20000213CB60996042F001036B60AA50B0E7B7
:104E30000A44D90707D454F8083CED1A1A44D5E9B6
:104E40000213CB60996042F001036B60284BBD6098
:104E50001B6893429DD8274B30461968FFF7F2FE36
:104E600097E71144CDE7142B08D9542B1FD80B0B0F
:104E700003F16F0003F16E02C300A6E703F15C00CB
:104E800003F15B02C300A0E741F001033D617D61D6
:104E9000C5F808C0C5F80CC06B60695079E70121FE
:104EA000921001FA02F279680A437A609CE7B3F53E
:104EB000AA7F06D8CB0B03F1780003F17702C30079
:104EC00083E740F25452934206D88B0C03F17D00E5
:104ED00003F17C02C30078E74FF47E737E2274E70F
:104EE00041F001036B60016053E700BF68010020DF
:104EF00060010020480B00202DE9F04F01F10B0567
:104F0000162D064683B024D8102900F2AA8000F09E
:104F1000ABFA102518234FF0020CB74F3B445C68E6
:104F2000A3F10802944200F0198130466368E268F8
:104F3000A16823F00303CA60234491605A680834CF
:104F400042F001025A6000F095FA204603B0BDE835
:104F5000F08F35F0070500F18480A94200F28180CE
:104F600000F082FAB5F5FC7FC0F06F816B0A7CD04F
:104F7000042B00F21B81AB0903F1390C03F1380E4D
:104F80004FEACC009C4F384444680838A04207D10F
:104F90000DE0002AE16880F2DB80884207D00C46F1
:104FA000636823F003035A1B0F2AF2DDF446DFF88F
:104FB0004C823C69444500F0B980636823F0030EDD
:104FC000AEEB05030F2B00F34581002BC7E90488E6
:104FD00080F22F81BEF5007F786880F0C6800123C3
:104FE0004FEADE014FEA5E1E194403FA0EF357F84A
:104FF0003120184307EBC103083BA260E3607860EF
:1050000047F83140D46001214FEAAC039940814216
:1050100032D8014206D12CF0030C490001420CF1B8
:10502000040CFAD007EBCC0A5046E146D0F80CE06D
:105030000DE0DEF80420744622F00302531B0F2B10
:10504000DEF80CE000F3BF80002B80F2E3807045B7
:10505000EFD109F1010919F0030F00F10800E5D1C2
:1050600024E10C23336000246FE74FF400704FF00D
:10507000400C4FF03F0E85E7BC68636823F00309DE
:10508000A94503D3A9EB05030F2B51DC5C4B08208A
:105090001B6803F1100803F003FD5A4A04EB0903EF
:1050A0000093136883460133A84405D008F1FF3804
:1050B0008044434203EA08084146304603F0CAFCF4
:1050C000B0F1FF3F82464F4A00F0E18004EB090354
:1050D000834200F2DA804C4B0BF1FF3118684044F8
:1050E0008446186040F000811AEA010F40F0FC800D
:1050F000D7F808A0C84448F00102CAF80420544672
:10510000424B1968814238BF1860414B196881428F
:1051100038BF186022F00308A845A8EB050301D3A7
:105120000F2B05DC304600F0A5F99CE778686AE7AC
:10513000621943F0010345F0010565603046BA602D
:105140000834536000F096F9204603B0BDE8F08FB4
:10515000A2683046D16023448A60EFE6DC68A3424F
:105160007FF4E3AE0CF1020C21E7BEF5206F4FEAAD
:105170005E22C0F08380142A00F2178102F15C03E2
:10518000DB005B32F918FB580839994203D1F3E090
:105190009B68994204D05A6822F003027245F7D8FE
:1051A000D968C4E902318C60DC602CE7142B71D91A
:1051B000542B00F203812B0B03F16F0C03F16E0EE5
:1051C0004FEACC00DEE66119304645F00105A668DD
:1051D000656043F00105C6F80CE0CEF80860C7E949
:1051E0000411C1F80880C1F80C804D60A35000F094
:1051F00041F90834A9E600BF6801002070010020D1
:10520000480B00205C010020180B0020440B0020FC
:10521000400B002022445368304643F001035360A2
:1052200054F8083FC3F80CE0CEF8083000F022F93B
:105230008BE6A644DEF80430304643F00103CEF896
:10524000043000F017F908347FE64FEAD50C05F179
:10525000080362E6621943F0010145F0010565604B
:105260003046C7E90422C2F80880C2F80C805160B9
:1052700044F80E3000F0FEF8083466E64FEA9E125D
:1052800002F13903DB0038327CE7BC4224D0BC6831
:1052900062683FE703F15C0C03F15B0E4FEACC0060
:1052A00070E65AF80839534540F0D9801CF0030FD6
:1052B0000CF1FF3CF5D17B6823EA01037B604900D8
:1052C00099423FF6D9AE19B9D6E6490009F1040969
:1052D0001942FAD0CC46A5E6624B0BF1FF311868B3
:1052E00008EB000CC3F800C01068013071D004EB6B
:1052F0000902AAEB020262441A601AF00702CDE921
:10530000002341D0C2F108029244D04408EA0100CF
:105310005A44121A02EA010B5946304603F09AFB2E
:10532000421C019B72D0A0EB0A0000EB0B0818682E
:1053300048F001025844BC42C7F808A01860CAF8F7
:1053400004203FF4DCAEB9F10F0F45D94FF0050C46
:105350006168A9F10C0222F0070201F0010111437A
:1053600061600F2A04EB0201C1F804C0C1F808C053
:1053700054D8DAF80420C2E64FF0010E92100EFA6B
:1053800002F2104378600CE70AEB08020A40ABEB2C
:10539000020202EA010B5946304603F05BFB431C54
:1053A000019BC0D1DDF800B0C1E7542A18D84FEAFC
:1053B0001E3202F16F03DB006E32E3E6B3F5AA7F23
:1053C00018D8EB0B03F1780C03F1770E4FEACC0001
:1053D000D8E5C2F800A090E70123CAF80430A1E69E
:1053E000B2F5AA7F25D84FEADE3202F17803DB005E
:1053F0007732C7E640F25452934225D8AB0C03F102
:105400007D0C03F17C0E4FEACC00BBE5009A4FF017
:10541000000B083A9044A8EB0A0888E7304604F1EC
:1054200008010093FFF76AFC009BD7F808A01868F2
:105430009FE740F254539A420DD84FEA9E4202F140
:105440007D03DB007C329DE64FF47E704FF07F0CD5
:105450004FF07E0E96E54FF47E737E2292E67B68D7
:105460002DE700BF180B00200148FFF7A9BB00BFC4
:10547000080B00200148FFF7A5BB00BF080B002068
:105480002DE9F04FDDB091461C460891834603F0AC
:10549000DDFA03680E9418461993FFF795FB03464F
:1054A000082200212CA81893FFF7B4FABBF1000FD3
:1054B00004D0DBF83430002B01F08C80089B5A6E4E
:1054C000B3F90C30D10702D49A0540F1B8869F0495
:1054D00007D4089943F400534A6E8B8122F400529A
:1054E0004A661E0740F1C780089A1269002A00F038
:1054F000C28003F01A020A2A00F0CC8000230024A4
:105500009E46CDE93133002333AA9046CDE91434C9
:10551000CDE91AEECDE91CEE3092CDF85CE0CDF885
:105520002CE0CDF848E0CDF824B0CDF81890069ED8
:10553000099D894B2CAFD3F8E44003F081FA324641
:10554000034628A928460097A047002800F0C180FC
:10555000C0F2B780289B252B01D00644E9E7069BC3
:105560000546F71A40F0B98000224FF0FF3391460C
:105570000A937378741C8DF897200C921F4601349F
:10558000A7F120035A2B00F2E980DFE813F0D302E1
:10559000E700E700CF02E700E700E700AF02E7001F
:1055A000E7006A008C02E70074029502E7009102AE
:1055B0005B005B005B005B005B005B005B005B0013
:1055C0005B00E700E700E700E700E700E700E7002F
:1055D0006A01E70004022C036A016A016A01E7001C
:1055E000E700E700E7002803E700E700E502E7003F
:1055F000E700E7001B02E7001603E700E7001907D2
:10560000E700E700E700E700E700E700E700E70062
:105610006A01E70004024C026A016A016A0182021F
:105620004C020002E7007802E70055033E074403FE
:105630000002E7001B0272003A07E700E70041079B
:10564000E70072000022A7F1300314F8017B02EB9F
:10565000820203EB4202A7F13003092BF5D90C9229
:105660008EE70E9B53F8042B002A0C920E93C0F287
:10567000FF81237882E7089D5846294603F05EF8AB
:10568000002841F0E083B5F90C3003F01A020A2A31
:105690007FF434AF0899B1F90E20002AFFF62EAF3F
:1056A0004A6ED00702D49A0541F1D58123464A4675
:1056B0005846089901F01AFD0B900B985DB0BDE8B3
:1056C000F08F082200212CA8FFF7A4F9012006443E
:1056D0002FE7069B0546F71A12D0069BC8E900374C
:1056E000329B3B443293319B0133072B319313DCC4
:1056F00008F108080B9B3B440B93002D7FF434AF5B
:10570000329BDDF824B0002B41F0E9800022089B99
:105710003192B3F90C3012E030AADDE9081001F043
:1057200061FD48B90DF1CC08E4E7A3460D9B1BB120
:1057300058460D99FFF7E2FA089BB3F90C30089A26
:10574000526ED40740F11981590601F188830B98F4
:105750005DB0BDE8F08F00BF700500200F94002FF2
:10576000CED04FF0010B002243AB8DF80C71CDF879
:105770001CB00693CDE910228DF897200D920A9265
:10578000139219F0020302D007990231079119F020
:105790008404329D05D10C9907980E1A002E00F34F
:1057A000A88082B10122C8F80420319A0135013263
:1057B0000DF19701072A32953192C8F8001000F3D5
:1057C000F28308F108087BB10223C8F80430319B4A
:1057D0000235013326AA072B32953193C8F80020F1
:1057E00000F3EF8308F10808802C00F0B8820A9BD0
:1057F000A3EB0B06002E00F3F68219F4807F40F035
:105800002A82069B5D44C8F80030319BC8F804B07A
:105810000133072B3295319300F3468308F10808D2
:1058200019F0040F05D00C9B079A9C1A002C00F36A
:10583000D483DDE90B3207998A42ACBF9B185B1811
:105840000B93002D40F00783002331930D9B1BB178
:105850000D990998FFF752FA0DF1CC080F9B0693AA
:1058600065E60E9B0F94073323F00703F3E8024528
:105870000E9325F0004321932094DDE920AB4FF0F7
:10588000FF3250465946B04BCDE91445FBF70CF9B1
:10589000002840F03C854FF0FF3250465946AA4B55
:1058A000FBF7E4F8002840F0328500220023204670
:1058B0002946FBF7D1F8002841F0CE819DF89720CA
:1058C00000214FF0030BA14CA14B29F080090D9151
:1058D000CDF81CB0472FC8BF1C46CDE91011069467
:1058E0000A911391002A3FF44CAF079B01330793B1
:1058F00047E7102E319A41F33E82DFF858C2414605
:105900002846B846CDE91E34DDE908454FF0100AB7
:105910006746CDF858C004E0103E102E01F1080192
:1059200015DD01321030072AC1E9007ACDE93120B6
:10593000F2DD2146284630AA01F054FC002840F050
:105940004686DDE93120103E102E33A9E9DC4746BA
:10595000DDE91E3488460546013216993544072A8A
:10596000CDE93125C8F80010C8F8046000F31E86A0
:105970009DF8972008F1080813E798053FF5E4AE75
:10598000089CA06DFFF71EF9B4F90C30DCE6237813
:1059900049F02009F2E50E9B432F0F9403F1040513
:1059A00000F06A8519F0100F40F066850E9B43AC3D
:1059B0001B688DF80C3101239B46079300220E953E
:1059C0000694D7E600230E9E8DF8973056F8043BD8
:1059D0000F940693002B00F03E85532F00F01186A4
:1059E00019F01003109340F00C860A9B5F1C00F026
:1059F00080871A461099069803F060F80D900028E9
:105A000001F022830D9B069A7327A3EB020B109BD8
:105A10002BEAEB719DF897200E960A93079113934A
:105A200011930D935EE719F0200F0F9400F0E280C0
:105A30000E9B073323F007031846596850F8083BBC
:105A40000A460E900029C0F248840A99013100F0FC
:105A50009A8253EA020129F0800B40F095820A9A5B
:105A6000002A40F096825CABD9460693934669E1E2
:105A70000C9B5B420C93237849F004097EE5237864
:105A80006C2B03BF637849F02009013449F01009F9
:105A900074E52378682B03BF637849F400790134F7
:105AA00049F040096AE52B238DF89730237865E5A6
:105AB000237849F0800961E5224612F8017B2A2FFC
:105AC00001F0DD82A7F13003092B144698BF0022B4
:105AD00001F2558114F8017B02EB820203EB4202D2
